{
  "_format": "hh-sol-artifact-1",
  "contractName": "NFTMarket",
  "sourceName": "contracts/NFTMarket.sol",
  "abi": [
    {
      "inputs": [],
      "stateMutability": "nonpayable",
      "type": "constructor"
    },
    {
      "anonymous": false,
      "inputs": [
        {
          "indexed": true,
          "internalType": "uint256",
          "name": "itemId",
          "type": "uint256"
        },
        {
          "indexed": true,
          "internalType": "address",
          "name": "nftContract",
          "type": "address"
        },
        {
          "indexed": true,
          "internalType": "uint256",
          "name": "tokenId",
          "type": "uint256"
        },
        {
          "indexed": false,
          "internalType": "address payable",
          "name": "seller",
          "type": "address"
        },
        {
          "indexed": false,
          "internalType": "address payable",
          "name": "owner",
          "type": "address"
        },
        {
          "indexed": false,
          "internalType": "uint256",
          "name": "price",
          "type": "uint256"
        },
        {
          "indexed": false,
          "internalType": "bool",
          "name": "sold",
          "type": "bool"
        }
      ],
      "name": "MarketItemCreated",
      "type": "event"
    },
    {
      "inputs": [
        {
          "internalType": "address",
          "name": "nftContract",
          "type": "address"
        },
        {
          "internalType": "uint256",
          "name": "tokenId",
          "type": "uint256"
        },
        {
          "internalType": "uint256",
          "name": "price",
          "type": "uint256"
        }
      ],
      "name": "createMarketItem",
      "outputs": [],
      "stateMutability": "payable",
      "type": "function"
    },
    {
      "inputs": [
        {
          "internalType": "address",
          "name": "nftContract",
          "type": "address"
        },
        {
          "internalType": "uint256",
          "name": "itemId",
          "type": "uint256"
        }
      ],
      "name": "createMarketSale",
      "outputs": [],
      "stateMutability": "payable",
      "type": "function"
    },
    {
      "inputs": [],
      "name": "fetchItemsCreated",
      "outputs": [
        {
          "components": [
            {
              "internalType": "uint256",
              "name": "itemId",
              "type": "uint256"
            },
            {
              "internalType": "address",
              "name": "nftContract",
              "type": "address"
            },
            {
              "internalType": "uint256",
              "name": "tokenId",
              "type": "uint256"
            },
            {
              "internalType": "address payable",
              "name": "seller",
              "type": "address"
            },
            {
              "internalType": "address payable",
              "name": "owner",
              "type": "address"
            },
            {
              "internalType": "uint256",
              "name": "price",
              "type": "uint256"
            },
            {
              "internalType": "bool",
              "name": "sold",
              "type": "bool"
            }
          ],
          "internalType": "struct NFTMarket.MarketItem[]",
          "name": "",
          "type": "tuple[]"
        }
      ],
      "stateMutability": "view",
      "type": "function"
    },
    {
      "inputs": [],
      "name": "fetchMarketItems",
      "outputs": [
        {
          "components": [
            {
              "internalType": "uint256",
              "name": "itemId",
              "type": "uint256"
            },
            {
              "internalType": "address",
              "name": "nftContract",
              "type": "address"
            },
            {
              "internalType": "uint256",
              "name": "tokenId",
              "type": "uint256"
            },
            {
              "internalType": "address payable",
              "name": "seller",
              "type": "address"
            },
            {
              "internalType": "address payable",
              "name": "owner",
              "type": "address"
            },
            {
              "internalType": "uint256",
              "name": "price",
              "type": "uint256"
            },
            {
              "internalType": "bool",
              "name": "sold",
              "type": "bool"
            }
          ],
          "internalType": "struct NFTMarket.MarketItem[]",
          "name": "",
          "type": "tuple[]"
        }
      ],
      "stateMutability": "view",
      "type": "function"
    },
    {
      "inputs": [],
      "name": "fetchMyNFTs",
      "outputs": [
        {
          "components": [
            {
              "internalType": "uint256",
              "name": "itemId",
              "type": "uint256"
            },
            {
              "internalType": "address",
              "name": "nftContract",
              "type": "address"
            },
            {
              "internalType": "uint256",
              "name": "tokenId",
              "type": "uint256"
            },
            {
              "internalType": "address payable",
              "name": "seller",
              "type": "address"
            },
            {
              "internalType": "address payable",
              "name": "owner",
              "type": "address"
            },
            {
              "internalType": "uint256",
              "name": "price",
              "type": "uint256"
            },
            {
              "internalType": "bool",
              "name": "sold",
              "type": "bool"
            }
          ],
          "internalType": "struct NFTMarket.MarketItem[]",
          "name": "",
          "type": "tuple[]"
        }
      ],
      "stateMutability": "view",
      "type": "function"
    },
    {
      "inputs": [],
      "name": "getListingPrice",
      "outputs": [
        {
          "internalType": "uint256",
          "name": "",
          "type": "uint256"
        }
      ],
      "stateMutability": "view",
      "type": "function"
    }
  ],
  "bytecode": "0x608060405266038d7ea4c6800060045534801561001b57600080fd5b506001600055600380546001600160a01b03191633179055610d43806100426000396000f3fe6080604052600436106100555760003560e01c80630f08efe01461005a57806312e8558514610085578063202e3740146100a357806358eb2df5146100b8578063c23b139e146100cd578063f064c32e146100e0575b600080fd5b34801561006657600080fd5b5061006f6100f5565b60405161007c9190610c19565b60405180910390f35b34801561009157600080fd5b5060045460405190815260200161007c565b3480156100af57600080fd5b5061006f6102ac565b6100cb6100c6366004610be7565b6104a4565b005b6100cb6100db366004610bbe565b610752565b3480156100ec57600080fd5b5061006f61096e565b6060600061010260015490565b9050600061010f60025490565b6101199083610cc5565b90506000808267ffffffffffffffff81111561014557634e487b7160e01b600052604160045260246000fd5b60405190808252806020026020018201604052801561017e57816020015b61016b610b66565b8152602001906001900390816101635790505b50905060005b848110156102a357600060058161019c846001610cad565b81526020810191909152604001600020600401546001600160a01b031614156102915760006005816101cf846001610cad565b81526020808201929092526040908101600090812054808252600580855291839020835160e0810185528154815260018201546001600160a01b0390811696820196909652600282015494810194909452600381015485166060850152600481015490941660808401529083015460a0830152600683015460ff16151560c0830152855190935085908790811061027657634e487b7160e01b600052603260045260246000fd5b602090810291909101015261028c600186610cad565b945050505b8061029b81610cdc565b915050610184565b50949350505050565b606060006102b960015490565b905060008060005b8381101561031c5733600560006102d9846001610cad565b81526020810191909152604001600020600401546001600160a01b0316141561030a57610307600184610cad565b92505b8061031481610cdc565b9150506102c1565b5060008267ffffffffffffffff81111561034657634e487b7160e01b600052604160045260246000fd5b60405190808252806020026020018201604052801561037f57816020015b61036c610b66565b8152602001906001900390816103645790505b50905060005b848110156102a357336005600061039d846001610cad565b81526020810191909152604001600020600401546001600160a01b031614156104925760006005816103d0846001610cad565b81526020808201929092526040908101600090812054808252600580855291839020835160e0810185528154815260018201546001600160a01b0390811696820196909652600282015494810194909452600381015485166060850152600481015490941660808401529083015460a0830152600683015460ff16151560c0830152855190935085908790811061047757634e487b7160e01b600052603260045260246000fd5b602090810291909101015261048d600186610cad565b945050505b8061049c81610cdc565b915050610385565b600260005414156104fc5760405162461bcd60e51b815260206004820152601f60248201527f5265656e7472616e637947756172643a207265656e7472616e742063616c6c0060448201526064015b60405180910390fd5b6002600055600a811161055c5760405162461bcd60e51b815260206004820152602260248201527f5072696365206d757374206265206174206c6561737420302e3030312065746860448201526132b960f11b60648201526084016104f3565b60045434146105b95760405162461bcd60e51b8152602060048201526024808201527f5072696365206d75737420626520657175616c20746f206c697374696e6720706044820152637269636560e01b60648201526084016104f3565b6105c7600180546001019055565b60006105d260015490565b6040805160e0810182528281526001600160a01b0387811660208084018281528486018a8152336060870181815260006080890181815260a08a018e815260c08b018381528d8452600598899052928c90209a518b55955160018b018054918b166001600160a01b0319928316179055945160028b0155915160038a018054918a1691861691909117905590516004808a01805492909916919094161790965591519286019290925592516006909401805494151560ff199095169490941790935592516323b872dd60e01b81529182015230602482015260448101869052919250906323b872dd90606401600060405180830381600087803b1580156106d857600080fd5b505af11580156106ec573d6000803e3d6000fd5b505060408051338152600060208201819052818301879052606082015290518693506001600160a01b038816925084917f045dfa01dcba2b36aba1d3dc4a874f4b0c5d2fbeb8d2c4b34a7d88c8d8f929d1919081900360800190a4505060016000555050565b600260005414156107a55760405162461bcd60e51b815260206004820152601f60248201527f5265656e7472616e637947756172643a207265656e7472616e742063616c6c0060448201526064016104f3565b6002600081815582815260056020819052604090912090810154910154348214610839576040805162461bcd60e51b81526020600482015260248101919091527f506c65617365207375626d6974207468652061736b696e67207072696365206960448201527f6e206f7264657220746f20636f6d706c6574652074686520707572636861736560648201526084016104f3565b6000838152600560205260408082206003015490516001600160a01b03909116913480156108fc02929091818181858888f19350505050158015610881573d6000803e3d6000fd5b506040516323b872dd60e01b8152306004820152336024820152604481018290526001600160a01b038516906323b872dd90606401600060405180830381600087803b1580156108d057600080fd5b505af11580156108e4573d6000803e3d6000fd5b50505060008481526005602052604090206004810180546001600160a01b03191633179055600601805460ff1916600117905550610926600280546001019055565b6003546004546040516001600160a01b039092169181156108fc0291906000818181858888f19350505050158015610962573d6000803e3d6000fd5b50506001600055505050565b6060600061097b60015490565b905060008060005b838110156109de57336005600061099b846001610cad565b81526020810191909152604001600020600301546001600160a01b031614156109cc576109c9600184610cad565b92505b806109d681610cdc565b915050610983565b5060008267ffffffffffffffff811115610a0857634e487b7160e01b600052604160045260246000fd5b604051908082528060200260200182016040528015610a4157816020015b610a2e610b66565b815260200190600190039081610a265790505b50905060005b848110156102a3573360056000610a5f846001610cad565b81526020810191909152604001600020600301546001600160a01b03161415610b54576000600581610a92846001610cad565b81526020808201929092526040908101600090812054808252600580855291839020835160e0810185528154815260018201546001600160a01b0390811696820196909652600282015494810194909452600381015485166060850152600481015490941660808401529083015460a0830152600683015460ff16151560c08301528551909350859087908110610b3957634e487b7160e01b600052603260045260246000fd5b6020908102919091010152610b4f600186610cad565b945050505b80610b5e81610cdc565b915050610a47565b6040805160e081018252600080825260208201819052918101829052606081018290526080810182905260a0810182905260c081019190915290565b80356001600160a01b0381168114610bb957600080fd5b919050565b60008060408385031215610bd0578182fd5b610bd983610ba2565b946020939093013593505050565b600080600060608486031215610bfb578081fd5b610c0484610ba2565b95602085013595506040909401359392505050565b602080825282518282018190526000919060409081850190868401855b82811015610ca057815180518552868101516001600160a01b039081168887015286820151878701526060808301518216908701526080808301519091169086015260a0808201519086015260c09081015115159085015260e09093019290850190600101610c36565b5091979650505050505050565b60008219821115610cc057610cc0610cf7565b500190565b600082821015610cd757610cd7610cf7565b500390565b6000600019821415610cf057610cf0610cf7565b5060010190565b634e487b7160e01b600052601160045260246000fdfea2646970667358221220b0867450da38e8f6445e7b9de76930907db3e8b2608e3b46ee440f3101b4976664736f6c63430008040033",
  "linkReferences": {},
  "deployedLinkReferences": {}
}